{
  "contractName": "Hasher",
  "abi": [
    {
      "constant": true,
      "inputs": [
        {
          "name": "_c",
          "type": "uint8"
        },
        {
          "name": "_salt",
          "type": "uint256"
        }
      ],
      "name": "hash",
      "outputs": [
        {
          "name": "",
          "type": "bytes32"
        }
      ],
      "payable": false,
      "stateMutability": "view",
      "type": "function"
    }
  ],
  "bytecode": "0x608060405234801561001057600080fd5b50610113806100206000396000f300608060405260043610603f576000357c0100000000000000000000000000000000000000000000000000000000900463ffffffff16806367ef4c13146044575b600080fd5b348015604f57600080fd5b506079600480360381019080803560ff169060200190929190803590602001909291905050506097565b60405180826000191660001916815260200191505060405180910390f35b60008282604051808360ff1660ff167f01000000000000000000000000000000000000000000000000000000000000000281526001018281526020019250505060405180910390209050929150505600a165627a7a72305820fe97b36fe3f68c4108f7bbf002980ec38e6d0bbf58375e3d4b8adc7b1a0946640029",
  "source": "pragma solidity ^0.4.26;\r\n\r\ncontract Hasher{\r\n    /** @dev Give the commitement. Must only be called locally.\r\n     *  @param _c The move.\r\n     *  @param _salt The salt to increase entropy.\r\n     */\r\n    function hash(uint8 _c, uint256 _salt) constant returns(bytes32) {\r\n        return keccak256(_c,_salt);\r\n    }\r\n}",
  "sourcePath": "C:\\Development\\Products\\Blockchain\\KlerosExcersices\\RPS\\KlerosRPS\\contracts\\Hasher.sol",
  "compiler": {
    "name": "solc",
    "version": "0.4.26+commit.4563c3fc.Emscripten.clang"
  },
  "schemaVersion": "3.4.10",
  "updatedAt": "2022-12-10T10:08:27.115Z",
  "networkType": "ethereum",
  "devdoc": {
    "methods": {
      "hash(uint8,uint256)": {
        "details": "Give the commitement. Must only be called locally.\r",
        "params": {
          "_c": "The move.\r",
          "_salt": "The salt to increase entropy.\r"
        }
      }
    }
  },
  "userdoc": {
    "methods": {}
  }
}